{
  "address": "0x8847480C34C7DceEf73647c57766f28c3A07596B",
  "abi": [
    {
      "inputs": [
        {
          "internalType": "address",
          "name": "_WETH",
          "type": "address"
        },
        {
          "internalType": "contract FeedRegistryInterface",
          "name": "_registry",
          "type": "address"
        },
        {
          "internalType": "uint32",
          "name": "_maxDelay",
          "type": "uint32"
        },
        {
          "internalType": "address",
          "name": "_governor",
          "type": "address"
        }
      ],
      "stateMutability": "nonpayable",
      "type": "constructor"
    },
    {
      "inputs": [],
      "name": "InvalidMappingsInput",
      "type": "error"
    },
    {
      "inputs": [],
      "name": "InvalidPrice",
      "type": "error"
    },
    {
      "inputs": [],
      "name": "LastUpdateIsTooOld",
      "type": "error"
    },
    {
      "inputs": [],
      "name": "PairNotSupported",
      "type": "error"
    },
    {
      "inputs": [],
      "name": "ZeroAddress",
      "type": "error"
    },
    {
      "inputs": [],
      "name": "ZeroMaxDelay",
      "type": "error"
    },
    {
      "anonymous": false,
      "inputs": [
        {
          "indexed": false,
          "internalType": "address",
          "name": "tokenA",
          "type": "address"
        },
        {
          "indexed": false,
          "internalType": "address",
          "name": "tokenB",
          "type": "address"
        }
      ],
      "name": "AddedSupportForPairInChainlinkOracle",
      "type": "event"
    },
    {
      "anonymous": false,
      "inputs": [
        {
          "indexed": false,
          "internalType": "address[]",
          "name": "tokens",
          "type": "address[]"
        },
        {
          "indexed": false,
          "internalType": "address[]",
          "name": "mappings",
          "type": "address[]"
        }
      ],
      "name": "MappingsAdded",
      "type": "event"
    },
    {
      "anonymous": false,
      "inputs": [],
      "name": "PendingGovernorAccepted",
      "type": "event"
    },
    {
      "anonymous": false,
      "inputs": [
        {
          "indexed": false,
          "internalType": "address",
          "name": "pendingGovernor",
          "type": "address"
        }
      ],
      "name": "PendingGovernorSet",
      "type": "event"
    },
    {
      "anonymous": false,
      "inputs": [
        {
          "indexed": false,
          "internalType": "address[]",
          "name": "tokens",
          "type": "address[]"
        }
      ],
      "name": "TokensConsideredUSD",
      "type": "event"
    },
    {
      "inputs": [],
      "name": "WETH",
      "outputs": [
        {
          "internalType": "address",
          "name": "",
          "type": "address"
        }
      ],
      "stateMutability": "view",
      "type": "function"
    },
    {
      "inputs": [],
      "name": "acceptPendingGovernor",
      "outputs": [],
      "stateMutability": "nonpayable",
      "type": "function"
    },
    {
      "inputs": [
        {
          "internalType": "address[]",
          "name": "_addresses",
          "type": "address[]"
        },
        {
          "internalType": "address[]",
          "name": "_mappings",
          "type": "address[]"
        }
      ],
      "name": "addMappings",
      "outputs": [],
      "stateMutability": "nonpayable",
      "type": "function"
    },
    {
      "inputs": [
        {
          "internalType": "address",
          "name": "_tokenA",
          "type": "address"
        },
        {
          "internalType": "address",
          "name": "_tokenB",
          "type": "address"
        }
      ],
      "name": "addSupportForPairIfNeeded",
      "outputs": [],
      "stateMutability": "nonpayable",
      "type": "function"
    },
    {
      "inputs": [
        {
          "internalType": "address[]",
          "name": "_addresses",
          "type": "address[]"
        }
      ],
      "name": "addUSDStablecoins",
      "outputs": [],
      "stateMutability": "nonpayable",
      "type": "function"
    },
    {
      "inputs": [
        {
          "internalType": "address",
          "name": "_tokenA",
          "type": "address"
        },
        {
          "internalType": "address",
          "name": "_tokenB",
          "type": "address"
        }
      ],
      "name": "canSupportPair",
      "outputs": [
        {
          "internalType": "bool",
          "name": "",
          "type": "bool"
        }
      ],
      "stateMutability": "view",
      "type": "function"
    },
    {
      "inputs": [],
      "name": "governor",
      "outputs": [
        {
          "internalType": "address",
          "name": "",
          "type": "address"
        }
      ],
      "stateMutability": "view",
      "type": "function"
    },
    {
      "inputs": [
        {
          "internalType": "address",
          "name": "_account",
          "type": "address"
        }
      ],
      "name": "isGovernor",
      "outputs": [
        {
          "internalType": "bool",
          "name": "_isGovernor",
          "type": "bool"
        }
      ],
      "stateMutability": "view",
      "type": "function"
    },
    {
      "inputs": [
        {
          "internalType": "address",
          "name": "_account",
          "type": "address"
        }
      ],
      "name": "isPendingGovernor",
      "outputs": [
        {
          "internalType": "bool",
          "name": "_isPendingGovernor",
          "type": "bool"
        }
      ],
      "stateMutability": "view",
      "type": "function"
    },
    {
      "inputs": [
        {
          "internalType": "address",
          "name": "_token",
          "type": "address"
        }
      ],
      "name": "mappedToken",
      "outputs": [
        {
          "internalType": "address",
          "name": "",
          "type": "address"
        }
      ],
      "stateMutability": "view",
      "type": "function"
    },
    {
      "inputs": [],
      "name": "maxDelay",
      "outputs": [
        {
          "internalType": "uint32",
          "name": "",
          "type": "uint32"
        }
      ],
      "stateMutability": "view",
      "type": "function"
    },
    {
      "inputs": [],
      "name": "pendingGovernor",
      "outputs": [
        {
          "internalType": "address",
          "name": "",
          "type": "address"
        }
      ],
      "stateMutability": "view",
      "type": "function"
    },
    {
      "inputs": [
        {
          "internalType": "address",
          "name": "",
          "type": "address"
        },
        {
          "internalType": "address",
          "name": "",
          "type": "address"
        }
      ],
      "name": "planForPair",
      "outputs": [
        {
          "internalType": "enum IChainlinkOracle.PricingPlan",
          "name": "",
          "type": "uint8"
        }
      ],
      "stateMutability": "view",
      "type": "function"
    },
    {
      "inputs": [
        {
          "internalType": "address",
          "name": "_tokenIn",
          "type": "address"
        },
        {
          "internalType": "uint128",
          "name": "_amountIn",
          "type": "uint128"
        },
        {
          "internalType": "address",
          "name": "_tokenOut",
          "type": "address"
        }
      ],
      "name": "quote",
      "outputs": [
        {
          "internalType": "uint256",
          "name": "_amountOut",
          "type": "uint256"
        }
      ],
      "stateMutability": "view",
      "type": "function"
    },
    {
      "inputs": [
        {
          "internalType": "address",
          "name": "_tokenA",
          "type": "address"
        },
        {
          "internalType": "address",
          "name": "_tokenB",
          "type": "address"
        }
      ],
      "name": "reconfigureSupportForPair",
      "outputs": [],
      "stateMutability": "nonpayable",
      "type": "function"
    },
    {
      "inputs": [],
      "name": "registry",
      "outputs": [
        {
          "internalType": "contract FeedRegistryInterface",
          "name": "",
          "type": "address"
        }
      ],
      "stateMutability": "view",
      "type": "function"
    },
    {
      "inputs": [
        {
          "internalType": "address",
          "name": "__pendingGovernor",
          "type": "address"
        }
      ],
      "name": "setPendingGovernor",
      "outputs": [],
      "stateMutability": "nonpayable",
      "type": "function"
    }
  ],
  "transactionHash": "0x9bbd8471f5e388baeb82e9d79bebd448ed0934451e7ad6565ca7c80e27602c71",
  "args": [
    "0x4200000000000000000000000000000000000006",
    "0x2dfb2c5c013826a0728440d8036305b254ad9cce",
    "3600",
    "0x1a00e1E311009E56e3b0B9Ed6F86f5Ce128a1C01"
  ],
  "solcInputHash": "eefcd53b2bad51af348f6e90ddaa55b3",
  "bytecode": "0x60e06040523480156200001157600080fd5b5060405162001c0b38038062001c0b833981016040819052620000349162000141565b806001600160a01b038116620000905760405162461bcd60e51b815260206004820152601860248201527f476f7665726e61626c653a207a65726f20616464726573730000000000000000604482015260640160405180910390fd5b600080546001600160a01b0319166001600160a01b0392831617905584161580620000c257506001600160a01b038316155b15620000e15760405163d92e233d60e01b815260040160405180910390fd5b63ffffffff82166200010657604051632c4f52fb60e21b815260040160405180910390fd5b506001600160a01b0391821660805263ffffffff1660c0521660a052620001b1565b6001600160a01b03811681146200013e57600080fd5b50565b600080600080608085870312156200015857600080fd5b8451620001658162000128565b6020860151909450620001788162000128565b604086015190935063ffffffff811681146200019357600080fd5b6060860151909250620001a68162000128565b939692955090935050565b60805160a05160c0516119f262000219600039600081816102ca0152818161139f01526113d601526000818161021301528181610a1701528181610bd901528181610c8d015261122a0152600081816101b801528181611112015261130801526119f26000f3fe608060405234801561001057600080fd5b506004361061010b5760003560e01c80637f55db3a116100a2578063e3056a3411610071578063e3056a3414610257578063e43581b814610268578063e82138cd1461028a578063ed49d2f8146102c5578063f235757f1461030157600080fd5b80637f55db3a146101da578063a513355f146101ed578063ad5c46481461020e578063df08aed51461023557600080fd5b80636edc6632116100de5780636edc66321461016a57806372c12c871461017d578063734273fd146101905780637b103999146101b357600080fd5b80630c340a241461011057806313f6986d1461013a5780631d4ef30a146101445780634df3cad614610157575b600080fd5b6000546001600160a01b03165b6040516001600160a01b0390911681526020015b60405180910390f35b610142610314565b005b610142610152366004611471565b610387565b61011d6101653660046114f4565b6104b5565b61014261017836600461150f565b61055d565b61014261018b366004611551565b610637565b6101a361019e366004611551565b610645565b6040519015158152602001610131565b61011d7f000000000000000000000000000000000000000000000000000000000000000081565b6101426101e8366004611551565b610688565b6102006101fb366004611584565b6106ec565b604051908152602001610131565b61011d7f000000000000000000000000000000000000000000000000000000000000000081565b6101a36102433660046114f4565b6001546001600160a01b0391821691161490565b6001546001600160a01b031661011d565b6101a36102763660046114f4565b6000546001600160a01b0391821691161490565b6102b8610298366004611551565b600260209081526000928352604080842090915290825290205460ff1681565b60405161013191906115eb565b6102ec7f000000000000000000000000000000000000000000000000000000000000000081565b60405163ffffffff9091168152602001610131565b61014261030f3660046114f4565b6107fd565b6001546001600160a01b0316331461037d5760405162461bcd60e51b815260206004820152602160248201527f476f7665726e61626c653a206f6e6c792070656e64696e6720676f7665726e6f6044820152603960f91b60648201526084015b60405180910390fd5b610385610833565b565b6000546001600160a01b031633146103b15760405162461bcd60e51b815260040161037490611613565b8281146103d1576040516306e3b91560e11b815260040160405180910390fd5b60005b83811015610471578282828181106103ee576103ee61164a565b905060200201602081019061040391906114f4565b600460008787858181106104195761041961164a565b905060200201602081019061042e91906114f4565b6001600160a01b039081168252602082019290925260400160002080546001600160a01b031916929091169190911790558061046981611676565b9150506103d4565b507f25967af46669513d9b32b10bce9dc8b094f9638e01d68bd4253fb634873b3d17848484846040516104a794939291906116d8565b60405180910390a150505050565b600046600114801561050957506001600160a01b03821673eb4c2781e4eba804ce9a9803c67d0893436bb27d148061050957506001600160a01b038216732260fac5e5542a773aa44fbcfedf7c193bc2c599145b15610529575073bbbbbbbbbbbbbbbbbbbbbbbbbbbbbbbbbbbbbbbb919050565b6001600160a01b03808316600090815260046020526040902054168061054f5782610551565b805b9392505050565b919050565b6000546001600160a01b031633146105875760405162461bcd60e51b815260040161037490611613565b60005b818110156105f9576001600360008585858181106105aa576105aa61164a565b90506020020160208101906105bf91906114f4565b6001600160a01b031681526020810191909152604001600020805460ff1916911515919091179055806105f181611676565b91505061058a565b507f0e1316bdb62d8b87b8c288a81e4bc638fbf187056521cd5f525a3c70dd812abf828260405161062b92919061170a565b60405180910390a15050565b61064182826108db565b5050565b600080600061065485856109be565b91509150600061066483836109ef565b9050600081600781111561067a5761067a6115d5565b141593505050505b92915050565b60008061069584846109be565b909250905060006001600160a01b0380841660009081526002602090815260408083209386168352929052205460ff1660078111156106d6576106d66115d5565b14156106e6576106e684846108db565b50505050565b60008060006106fb86856109be565b6001600160a01b03808316600090815260026020908152604080832093851683529290529081205492945090925060ff90911690816007811115610741576107416115d5565b1415610760576040516365db466f60e01b815260040160405180910390fd5b600061076b88610b1d565b9050600061077887610b1d565b9050600383600781111561078e5761078e6115d5565b116107b6576107aa898884848c6001600160801b031688610b81565b95505050505050610551565b60058360078111156107ca576107ca6115d5565b116107e6576107aa898884848c6001600160801b031688610d3b565b6107aa898884848c6001600160801b031688610dd3565b6000546001600160a01b031633146108275760405162461bcd60e51b815260040161037490611613565b61083081610f0a565b50565b6001546001600160a01b031661088b5760405162461bcd60e51b815260206004820152601f60248201527f476f7665726e61626c653a206e6f2070656e64696e6720676f7665726e6f72006044820152606401610374565b60018054600080546001600160a01b03199081166001600160a01b0384161782559091169091556040517fdc57ca23c46d823853915ed5a090ca0ee9db5eb6a46f5c58e1c9158de861fd769190a1565b6000806108e884846109be565b9150915060006108f883836109ef565b9050600081600781111561090e5761090e6115d5565b141561092d576040516365db466f60e01b815260040160405180910390fd5b6001600160a01b038084166000908152600260209081526040808320938616835292905220805482919060ff1916600183600781111561096f5761096f6115d5565b0217905550604080516001600160a01b038086168252841660208201527fa0f87b02ca47ea06fb7d8fd30abf826222301c4e0cc359211c4254d49b4736ad910160405180910390a15050505050565b600080826001600160a01b0316846001600160a01b0316106109e15782846109e4565b83835b909590945092505050565b6000806109fb84610fb4565b90506000610a0884610fb4565b90506001600160a01b038581167f0000000000000000000000000000000000000000000000000000000000000000821690811491861614818015610a495750825b80610a595750838015610a595750805b15610a6b576001945050505050610682565b8215610a8957610a7e8760026007611059565b945050505050610682565b8315610a9c57610a7e8660026006611059565b8015610aaf57610a7e8760066003611059565b8115610ac257610a7e8660076003611059565b610ace8761034861110e565b15610ae057610a7e8660046006611059565b610afe8773eeeeeeeeeeeeeeeeeeeeeeeeeeeeeeeeeeeeeeee61110e565b15610b1057610a7e8660076005611059565b5060009695505050505050565b6000816001600160a01b031663313ce5676040518163ffffffff1660e01b8152600401602060405180830381865afa158015610b5d573d6000803e3d6000fd5b505050506040513d601f19601f820116820180604052508101906106829190611726565b600080806003846007811115610b9957610b996115d5565b14610ba5576008610ba8565b60125b90506000610bb58a610fb4565b80610c0d57506003856007811115610bcf57610bcf6115d5565b148015610c0d57507f00000000000000000000000000000000000000000000000000000000000000006001600160a01b03168a6001600160a01b0316145b90506001856007811115610c2357610c236115d5565b1415610c3857610c316111cc565b9250610cd3565b6002856007811115610c4c57610c4c6115d5565b1415610c6e57610c31610c5e8a610fb4565b610c6857896111f3565b8a6111f3565b6003856007811115610c8257610c826115d5565b1415610cd357610cd07f00000000000000000000000000000000000000000000000000000000000000006001600160a01b03168a6001600160a01b031614610cca5789611226565b8a611226565b92505b80610d0c57610d02610ce58785611749565b89610cf0858b611768565b610cfa9190611768565b60000b611296565b9350505050610d31565b610d0283610d1e88610cfa8b876117a9565b610d2891906117ec565b610cfa8a61180e565b9695505050505050565b6000806004836007811115610d5257610d526115d5565b14610d715773eeeeeeeeeeeeeeeeeeeeeeeeeeeeeeeeeeeeeeee610d75565b6103485b90506000610d8b610d858a6104b5565b836112da565b90506000610da1610d9b8a6104b5565b846112da565b9050610dc581610db18489611749565b610dbb91906117ec565b610cfa8a8a611768565b9a9950505050505050505050565b6000806006836007811115610dea57610dea6115d5565b148015610e085750866001600160a01b0316886001600160a01b0316105b80610e4057506007836007811115610e2257610e226115d5565b148015610e405750866001600160a01b0316886001600160a01b0316115b90506000610e4c6111cc565b90508115610eb6576000610e5f8a6111f3565b90506000610e6c8a611226565b90506000610e93610e7d848a611749565b6012610e898d8d611768565b610cfa91906117a9565b905081610ea085836117ec565b610eaa91906117ec565b95505050505050610d31565b6000610ec18a611226565b90506000610ece8a6111f3565b9050610eff8184610edf858b611749565b610ee99190611749565b610ef391906117ec565b6012610cf08c8c611768565b945050505050610d31565b6001600160a01b038116610f605760405162461bcd60e51b815260206004820152601860248201527f476f7665726e61626c653a207a65726f206164647265737300000000000000006044820152606401610374565b600180546001600160a01b0319166001600160a01b0383169081179091556040519081527f56bddfa0cee9697cebddf9acd7f23dc6583663b05e007b877056d05017994def9060200160405180910390a150565b60008046600114801561103057506001600160a01b038316736b175474e89094c44da98b954eedeac495271d0f148061100957506001600160a01b03831673a0b86991c6218b36c1d19d4a2e9eb0ce3606eb48145b8061103057506001600160a01b03831673dac17f958d2ee523a2206206994597c13d831ec7145b90508080610551575050506001600160a01b031660009081526003602052604090205460ff1690565b6000806000806000856007811115611073576110736115d5565b876007811115611085576110856115d5565b106110a95773eeeeeeeeeeeeeeeeeeeeeeeeeeeeeeeeeeeeeeee86610348896110c4565b6103488773eeeeeeeeeeeeeeeeeeeeeeeeeeeeeeeeeeeeeeee885b93509350935093506110d6888561110e565b156110e75782945050505050610551565b6110f1888361110e565b1561110157935061055192505050565b6000945050505050610551565b60007f00000000000000000000000000000000000000000000000000000000000000006001600160a01b031663bcfd032d611148856104b5565b6040516001600160e01b031960e084901b1681526001600160a01b039182166004820152908516602482015260440160a060405180830381865afa9250505080156111b0575060408051601f3d908101601f191682019092526111ad91810190611848565b60015b6111bc57506000610682565b6000841395505050505050610682565b60006111ee73eeeeeeeeeeeeeeeeeeeeeeeeeeeeeeeeeeeeeeee6103486112da565b905090565b60006111fe82610fb4565b61121b5761121661120e836104b5565b6103486112da565b610682565b6305f5e10092915050565b60007f00000000000000000000000000000000000000000000000000000000000000006001600160a01b0316826001600160a01b0316146112875761121661126d836104b5565b73eeeeeeeeeeeeeeeeeeeeeeeeeeeeeeeeeeeeeeee6112da565b670de0b6b3a764000092915050565b6000808212156112c5576112a982611898565b6112b490600a611999565b6112be90846117ec565b9050610682565b6112d082600a611999565b6112be9084611749565b60405163bcfd032d60e01b81526001600160a01b0383811660048301528281166024830152600091829182917f00000000000000000000000000000000000000000000000000000000000000009091169063bcfd032d9060440160a060405180830381865afa158015611351573d6000803e3d6000fd5b505050506040513d601f19601f820116820180604052508101906113759190611848565b509350509250506000821361139c5760405162bfc92160e01b815260040160405180910390fd5b427f000000000000000000000000000000000000000000000000000000000000000063ffffffff161080156113ff57506113fc63ffffffff7f000000000000000000000000000000000000000000000000000000000000000016426119a5565b81105b1561141d576040516346ea729360e01b815260040160405180910390fd5b509392505050565b60008083601f84011261143757600080fd5b50813567ffffffffffffffff81111561144f57600080fd5b6020830191508360208260051b850101111561146a57600080fd5b9250929050565b6000806000806040858703121561148757600080fd5b843567ffffffffffffffff8082111561149f57600080fd5b6114ab88838901611425565b909650945060208701359150808211156114c457600080fd5b506114d187828801611425565b95989497509550505050565b80356001600160a01b038116811461055857600080fd5b60006020828403121561150657600080fd5b610551826114dd565b6000806020838503121561152257600080fd5b823567ffffffffffffffff81111561153957600080fd5b61154585828601611425565b90969095509350505050565b6000806040838503121561156457600080fd5b61156d836114dd565b915061157b602084016114dd565b90509250929050565b60008060006060848603121561159957600080fd5b6115a2846114dd565b925060208401356001600160801b03811681146115be57600080fd5b91506115cc604085016114dd565b90509250925092565b634e487b7160e01b600052602160045260246000fd5b602081016008831061160d57634e487b7160e01b600052602160045260246000fd5b91905290565b60208082526019908201527f476f7665726e61626c653a206f6e6c7920676f7665726e6f7200000000000000604082015260600190565b634e487b7160e01b600052603260045260246000fd5b634e487b7160e01b600052601160045260246000fd5b600060001982141561168a5761168a611660565b5060010190565b8183526000602080850194508260005b858110156116cd576001600160a01b036116ba836114dd565b16875295820195908201906001016116a1565b509495945050505050565b6040815260006116ec604083018688611691565b82810360208401526116ff818587611691565b979650505050505050565b60208152600061171e602083018486611691565b949350505050565b60006020828403121561173857600080fd5b815160ff8116811461055157600080fd5b600081600019048311821515161561176357611763611660565b500290565b600081810b83820b8281128015607f1983018412161561178a5761178a611660565b81607f01831381161561179f5761179f611660565b5090039392505050565b60008160000b8360000b6000821282607f038213811516156117cd576117cd611660565b82607f190382128116156117e3576117e3611660565b50019392505050565b60008261180957634e487b7160e01b600052601260045260246000fd5b500490565b600081810b607f1981141561182557611825611660565b60000392915050565b805169ffffffffffffffffffff8116811461055857600080fd5b600080600080600060a0868803121561186057600080fd5b6118698661182e565b945060208601519350604086015192506060860151915061188c6080870161182e565b90509295509295909350565b6000600160ff1b8214156118ae576118ae611660565b5060000390565b600181815b808511156118f05781600019048211156118d6576118d6611660565b808516156118e357918102915b93841c93908002906118ba565b509250929050565b60008261190757506001610682565b8161191457506000610682565b816001811461192a576002811461193457611950565b6001915050610682565b60ff84111561194557611945611660565b50506001821b610682565b5060208310610133831016604e8410600b8410161715611973575081810a610682565b61197d83836118b5565b806000190482111561199157611991611660565b029392505050565b600061055183836118f8565b6000828210156119b7576119b7611660565b50039056fea26469706673582212205ddbe9ea79d2d8c1e5aefe9687edcf166ab126d4ae2152710c91755eb2d4a62864736f6c634300080a0033",
  "devdoc": {
    "kind": "dev",
    "methods": {
      "addMappings(address[],address[])": {
        "params": {
          "_addresses": "The addresses of the tokens",
          "_mappings": "The addresses of their mappings"
        }
      },
      "addSupportForPairIfNeeded(address,address)": {
        "details": "Will revert if pair cannot be supported. _tokenA and _tokenB may be passed in either tokenA/tokenB or tokenB/tokenA order",
        "params": {
          "_tokenA": "One of the pair's tokens",
          "_tokenB": "The other of the pair's tokens"
        }
      },
      "addUSDStablecoins(address[])": {
        "params": {
          "_addresses": "The addresses of the tokens"
        }
      },
      "canSupportPair(address,address)": {
        "details": "_tokenA and _tokenB may be passed in either tokenA/tokenB or tokenB/tokenA order",
        "params": {
          "_tokenA": "One of the pair's tokens",
          "_tokenB": "The other of the pair's tokens"
        },
        "returns": {
          "_0": "Whether the given pair of tokens can be supported by the oracle"
        }
      },
      "mappedToken(address)": {
        "returns": {
          "_0": "If it exists, the mapping is returned. Otherwise, the original token is returned"
        }
      },
      "quote(address,uint128,address)": {
        "params": {
          "_amountIn": "The amount that will be provided",
          "_tokenIn": "The token that will be provided",
          "_tokenOut": "The token we would like to quote"
        },
        "returns": {
          "_amountOut": "How much _tokenOut will be returned in exchange for _amountIn amount of _tokenIn"
        }
      },
      "reconfigureSupportForPair(address,address)": {
        "details": "Will revert if pair cannot be supported. _tokenA and _tokenB may be passed in either tokenA/tokenB or tokenB/tokenA order",
        "params": {
          "_tokenA": "One of the pair's tokens",
          "_tokenB": "The other of the pair's tokens"
        }
      }
    },
    "stateVariables": {
      "WETH": {
        "return": "The address of the token",
        "returns": {
          "_0": "The address of the token"
        }
      },
      "maxDelay": {
        "return": "How old the last price update can be in seconds",
        "returns": {
          "_0": "How old the last price update can be in seconds"
        }
      },
      "planForPair": {
        "details": "It is expected that _tokenA < _tokenB",
        "return": "The pricing plan that will be used",
        "returns": {
          "_0": "The pricing plan that will be used"
        }
      },
      "registry": {
        "return": "The Chainlink registry",
        "returns": {
          "_0": "The Chainlink registry"
        }
      }
    },
    "version": 1
  },
  "userdoc": {
    "errors": {
      "InvalidMappingsInput()": [
        {
          "notice": "Thrown when the input for adding mappings in invalid"
        }
      ],
      "InvalidPrice()": [
        {
          "notice": "Thrown when the price is non-positive"
        }
      ],
      "LastUpdateIsTooOld()": [
        {
          "notice": "Thrown when the last price update was too long ago"
        }
      ],
      "PairNotSupported()": [
        {
          "notice": "Thrown when trying to configure a pair that is not supported"
        }
      ],
      "ZeroAddress()": [
        {
          "notice": "Thrown when one of the parameters is a zero address"
        }
      ],
      "ZeroMaxDelay()": [
        {
          "notice": "Thrown when the given max delay is zero"
        }
      ]
    },
    "events": {
      "AddedSupportForPairInChainlinkOracle(address,address)": {
        "notice": "Emitted when the oracle add supports for a new pair"
      },
      "MappingsAdded(address[],address[])": {
        "notice": "Emitted when new mappings are added"
      },
      "TokensConsideredUSD(address[])": {
        "notice": "Emitted when new tokens are considered USD"
      }
    },
    "kind": "user",
    "methods": {
      "WETH()": {
        "notice": "Returns the address of the WETH ERC-20 token"
      },
      "addMappings(address[],address[])": {
        "notice": "Adds new token mappings"
      },
      "addSupportForPairIfNeeded(address,address)": {
        "notice": "Adds support for a given pair if the oracle didn't support it already. If called for a pair that is already supported, then nothing will happen. This function will let the oracle take some actions to configure the pair, in preparation for future quotes."
      },
      "addUSDStablecoins(address[])": {
        "notice": "Adds new tokens that should be considered USD stablecoins"
      },
      "canSupportPair(address,address)": {
        "notice": "Returns whether this oracle can support this pair of tokens"
      },
      "mappedToken(address)": {
        "notice": "Returns the mapping of the given token, if it exists. If it doesn't, then the original token is returned"
      },
      "maxDelay()": {
        "notice": "Returns how old the last price update can be before the oracle reverts by considering it too old"
      },
      "planForPair(address,address)": {
        "notice": "Returns the pricing plan that will be used when quoting the given pair"
      },
      "quote(address,uint128,address)": {
        "notice": "Returns a quote, based on the given tokens and amount"
      },
      "reconfigureSupportForPair(address,address)": {
        "notice": "Reconfigures support for a given pair. This function will let the oracle take some actions to configure the pair, in preparation for future quotes. Can be called many times in order to let the oracle re-configure for a new context."
      },
      "registry()": {
        "notice": "Returns the Chainlink feed registry"
      }
    },
    "version": 1
  },
  "storageLayout": {
    "storage": [
      {
        "astId": 15959,
        "contract": "contracts/oracles/ChainlinkOracle.sol:ChainlinkOracle",
        "label": "_governor",
        "offset": 0,
        "slot": "0",
        "type": "t_address"
      },
      {
        "astId": 15961,
        "contract": "contracts/oracles/ChainlinkOracle.sol:ChainlinkOracle",
        "label": "_pendingGovernor",
        "offset": 0,
        "slot": "1",
        "type": "t_address"
      },
      {
        "astId": 14385,
        "contract": "contracts/oracles/ChainlinkOracle.sol:ChainlinkOracle",
        "label": "planForPair",
        "offset": 0,
        "slot": "2",
        "type": "t_mapping(t_address,t_mapping(t_address,t_enum(PricingPlan)10444))"
      },
      {
        "astId": 14420,
        "contract": "contracts/oracles/ChainlinkOracle.sol:ChainlinkOracle",
        "label": "_shouldBeConsideredUSD",
        "offset": 0,
        "slot": "3",
        "type": "t_mapping(t_address,t_bool)"
      },
      {
        "astId": 14424,
        "contract": "contracts/oracles/ChainlinkOracle.sol:ChainlinkOracle",
        "label": "_tokenMappings",
        "offset": 0,
        "slot": "4",
        "type": "t_mapping(t_address,t_address)"
      }
    ],
    "types": {
      "t_address": {
        "encoding": "inplace",
        "label": "address",
        "numberOfBytes": "20"
      },
      "t_bool": {
        "encoding": "inplace",
        "label": "bool",
        "numberOfBytes": "1"
      },
      "t_enum(PricingPlan)10444": {
        "encoding": "inplace",
        "label": "enum IChainlinkOracle.PricingPlan",
        "numberOfBytes": "1"
      },
      "t_mapping(t_address,t_address)": {
        "encoding": "mapping",
        "key": "t_address",
        "label": "mapping(address => address)",
        "numberOfBytes": "32",
        "value": "t_address"
      },
      "t_mapping(t_address,t_bool)": {
        "encoding": "mapping",
        "key": "t_address",
        "label": "mapping(address => bool)",
        "numberOfBytes": "32",
        "value": "t_bool"
      },
      "t_mapping(t_address,t_enum(PricingPlan)10444)": {
        "encoding": "mapping",
        "key": "t_address",
        "label": "mapping(address => enum IChainlinkOracle.PricingPlan)",
        "numberOfBytes": "32",
        "value": "t_enum(PricingPlan)10444"
      },
      "t_mapping(t_address,t_mapping(t_address,t_enum(PricingPlan)10444))": {
        "encoding": "mapping",
        "key": "t_address",
        "label": "mapping(address => mapping(address => enum IChainlinkOracle.PricingPlan))",
        "numberOfBytes": "32",
        "value": "t_mapping(t_address,t_enum(PricingPlan)10444)"
      }
    }
  }
}