{
  "address": "0x9bB0Fa1A797d76eBDe80981CD0f0079bCc2c7a43",
  "abi": [
    {
      "inputs": [
        {
          "internalType": "address",
          "name": "_WETH",
          "type": "address"
        },
        {
          "internalType": "contract FeedRegistryInterface",
          "name": "_registry",
          "type": "address"
        },
        {
          "internalType": "address",
          "name": "_governor",
          "type": "address"
        }
      ],
      "stateMutability": "nonpayable",
      "type": "constructor"
    },
    {
      "inputs": [],
      "name": "InvalidPrice",
      "type": "error"
    },
    {
      "inputs": [],
      "name": "LastUpdateIsTooOld",
      "type": "error"
    },
    {
      "anonymous": false,
      "inputs": [
        {
          "indexed": false,
          "internalType": "address",
          "name": "tokenA",
          "type": "address"
        },
        {
          "indexed": false,
          "internalType": "address",
          "name": "tokenB",
          "type": "address"
        }
      ],
      "name": "AddedSupportForPairInChainlinkOracle",
      "type": "event"
    },
    {
      "anonymous": false,
      "inputs": [
        {
          "indexed": false,
          "internalType": "address[]",
          "name": "tokens",
          "type": "address[]"
        },
        {
          "indexed": false,
          "internalType": "address[]",
          "name": "mappings",
          "type": "address[]"
        }
      ],
      "name": "MappingsAdded",
      "type": "event"
    },
    {
      "anonymous": false,
      "inputs": [],
      "name": "PendingGovernorAccepted",
      "type": "event"
    },
    {
      "anonymous": false,
      "inputs": [
        {
          "indexed": false,
          "internalType": "address",
          "name": "pendingGovernor",
          "type": "address"
        }
      ],
      "name": "PendingGovernorSet",
      "type": "event"
    },
    {
      "anonymous": false,
      "inputs": [
        {
          "indexed": false,
          "internalType": "address[]",
          "name": "tokens",
          "type": "address[]"
        }
      ],
      "name": "TokensConsideredUSD",
      "type": "event"
    },
    {
      "inputs": [],
      "name": "WETH",
      "outputs": [
        {
          "internalType": "address",
          "name": "",
          "type": "address"
        }
      ],
      "stateMutability": "view",
      "type": "function"
    },
    {
      "inputs": [],
      "name": "acceptPendingGovernor",
      "outputs": [],
      "stateMutability": "nonpayable",
      "type": "function"
    },
    {
      "inputs": [
        {
          "internalType": "address[]",
          "name": "_addresses",
          "type": "address[]"
        },
        {
          "internalType": "address[]",
          "name": "_mappings",
          "type": "address[]"
        }
      ],
      "name": "addMappings",
      "outputs": [],
      "stateMutability": "nonpayable",
      "type": "function"
    },
    {
      "inputs": [
        {
          "internalType": "address",
          "name": "_tokenA",
          "type": "address"
        },
        {
          "internalType": "address",
          "name": "_tokenB",
          "type": "address"
        }
      ],
      "name": "addSupportForPairIfNeeded",
      "outputs": [],
      "stateMutability": "nonpayable",
      "type": "function"
    },
    {
      "inputs": [
        {
          "internalType": "address[]",
          "name": "_addresses",
          "type": "address[]"
        }
      ],
      "name": "addUSDStablecoins",
      "outputs": [],
      "stateMutability": "nonpayable",
      "type": "function"
    },
    {
      "inputs": [
        {
          "internalType": "address",
          "name": "_tokenA",
          "type": "address"
        },
        {
          "internalType": "address",
          "name": "_tokenB",
          "type": "address"
        }
      ],
      "name": "canSupportPair",
      "outputs": [
        {
          "internalType": "bool",
          "name": "",
          "type": "bool"
        }
      ],
      "stateMutability": "view",
      "type": "function"
    },
    {
      "inputs": [],
      "name": "governor",
      "outputs": [
        {
          "internalType": "address",
          "name": "",
          "type": "address"
        }
      ],
      "stateMutability": "view",
      "type": "function"
    },
    {
      "inputs": [
        {
          "internalType": "address",
          "name": "_account",
          "type": "address"
        }
      ],
      "name": "isGovernor",
      "outputs": [
        {
          "internalType": "bool",
          "name": "_isGovernor",
          "type": "bool"
        }
      ],
      "stateMutability": "view",
      "type": "function"
    },
    {
      "inputs": [
        {
          "internalType": "address",
          "name": "_account",
          "type": "address"
        }
      ],
      "name": "isPendingGovernor",
      "outputs": [
        {
          "internalType": "bool",
          "name": "_isPendingGovernor",
          "type": "bool"
        }
      ],
      "stateMutability": "view",
      "type": "function"
    },
    {
      "inputs": [
        {
          "internalType": "address",
          "name": "_token",
          "type": "address"
        }
      ],
      "name": "mappedToken",
      "outputs": [
        {
          "internalType": "address",
          "name": "",
          "type": "address"
        }
      ],
      "stateMutability": "view",
      "type": "function"
    },
    {
      "inputs": [],
      "name": "pendingGovernor",
      "outputs": [
        {
          "internalType": "address",
          "name": "",
          "type": "address"
        }
      ],
      "stateMutability": "view",
      "type": "function"
    },
    {
      "inputs": [
        {
          "internalType": "address",
          "name": "",
          "type": "address"
        },
        {
          "internalType": "address",
          "name": "",
          "type": "address"
        }
      ],
      "name": "planForPair",
      "outputs": [
        {
          "internalType": "enum IChainlinkOracle.PricingPlan",
          "name": "",
          "type": "uint8"
        }
      ],
      "stateMutability": "view",
      "type": "function"
    },
    {
      "inputs": [
        {
          "internalType": "address",
          "name": "_tokenIn",
          "type": "address"
        },
        {
          "internalType": "uint128",
          "name": "_amountIn",
          "type": "uint128"
        },
        {
          "internalType": "address",
          "name": "_tokenOut",
          "type": "address"
        }
      ],
      "name": "quote",
      "outputs": [
        {
          "internalType": "uint256",
          "name": "_amountOut",
          "type": "uint256"
        }
      ],
      "stateMutability": "view",
      "type": "function"
    },
    {
      "inputs": [
        {
          "internalType": "address",
          "name": "_tokenA",
          "type": "address"
        },
        {
          "internalType": "address",
          "name": "_tokenB",
          "type": "address"
        }
      ],
      "name": "reconfigureSupportForPair",
      "outputs": [],
      "stateMutability": "nonpayable",
      "type": "function"
    },
    {
      "inputs": [],
      "name": "registry",
      "outputs": [
        {
          "internalType": "contract FeedRegistryInterface",
          "name": "",
          "type": "address"
        }
      ],
      "stateMutability": "view",
      "type": "function"
    },
    {
      "inputs": [
        {
          "internalType": "address",
          "name": "__pendingGovernor",
          "type": "address"
        }
      ],
      "name": "setPendingGovernor",
      "outputs": [],
      "stateMutability": "nonpayable",
      "type": "function"
    }
  ],
  "transactionHash": "0xbbf91c6ffef260f52375485f310a329ae0700f53b14810bcffc96488600a23f9",
  "args": [
    "0xd0a1e359811322d97991e03f863a0c30c2cf029c",
    "0xAa7F6f7f507457a1EE157fE97F6c7DB2BEec5cD0",
    "0xeeAE844d04ee45c37636D8Db8C9482200177DC93"
  ],
  "solcInputHash": "030ff5f55825c83afc9b0eab09fca7f7",
  "bytecode": "0x60c06040523480156200001157600080fd5b5060405162001b7638038062001b76833981016040819052620000349162000134565b806001600160a01b038116620000915760405162461bcd60e51b815260206004820152601860248201527f476f7665726e61626c653a207a65726f2061646472657373000000000000000060448201526064015b60405180910390fd5b600080546001600160a01b0319166001600160a01b03928316179055831615801590620000c657506001600160a01b03821615155b620001025760405162461bcd60e51b815260206004820152600b60248201526a5a65726f4164647265737360a81b604482015260640162000088565b506001600160a01b039081166080521660a05262000188565b6001600160a01b03811681146200013157600080fd5b50565b6000806000606084860312156200014a57600080fd5b835162000157816200011b565b60208501519093506200016a816200011b565b60408501519092506200017d816200011b565b809150509250925092565b60805160a05161199e620001d86000396000818161020801528181610a2701528181610be901528181610c9d015261122a0152600081816101ad015281816111120152611308015261199e6000f3fe608060405234801561001057600080fd5b50600436106101005760003560e01c80637f55db3a11610097578063e3056a3411610066578063e3056a341461024c578063e43581b81461025d578063e82138cd1461027f578063f235757f146102ba57600080fd5b80637f55db3a146101cf578063a513355f146101e2578063ad5c464814610203578063df08aed51461022a57600080fd5b80636edc6632116100d35780636edc66321461015f57806372c12c8714610172578063734273fd146101855780637b103999146101a857600080fd5b80630c340a241461010557806313f6986d1461012f5780631d4ef30a146101395780634df3cad61461014c575b600080fd5b6000546001600160a01b03165b6040516001600160a01b0390911681526020015b60405180910390f35b6101376102cd565b005b61013761014736600461141d565b610340565b61011261015a3660046114a0565b61048c565b61013761016d3660046114bb565b610529565b6101376101803660046114fd565b610603565b6101986101933660046114fd565b610611565b6040519015158152602001610126565b6101127f000000000000000000000000000000000000000000000000000000000000000081565b6101376101dd3660046114fd565b610654565b6101f56101f0366004611530565b6106b8565b604051908152602001610126565b6101127f000000000000000000000000000000000000000000000000000000000000000081565b6101986102383660046114a0565b6001546001600160a01b0391821691161490565b6001546001600160a01b0316610112565b61019861026b3660046114a0565b6000546001600160a01b0391821691161490565b6102ad61028d3660046114fd565b600260209081526000928352604080842090915290825290205460ff1681565b6040516101269190611597565b6101376102c83660046114a0565b6107eb565b6001546001600160a01b031633146103365760405162461bcd60e51b815260206004820152602160248201527f476f7665726e61626c653a206f6e6c792070656e64696e6720676f7665726e6f6044820152603960f91b60648201526084015b60405180910390fd5b61033e610821565b565b6000546001600160a01b0316331461036a5760405162461bcd60e51b815260040161032d906115bf565b8281146103a85760405162461bcd60e51b815260206004820152600c60248201526b125b9d985b1a59125b9c1d5d60a21b604482015260640161032d565b60005b83811015610448578282828181106103c5576103c56115f6565b90506020020160208101906103da91906114a0565b600460008787858181106103f0576103f06115f6565b905060200201602081019061040591906114a0565b6001600160a01b039081168252602082019290925260400160002080546001600160a01b031916929091169190911790558061044081611622565b9150506103ab565b507f25967af46669513d9b32b10bce9dc8b094f9638e01d68bd4253fb634873b3d178484848460405161047e9493929190611684565b60405180910390a150505050565b60006001600160a01b03821673eb4c2781e4eba804ce9a9803c67d0893436bb27d14806104d557506001600160a01b038216732260fac5e5542a773aa44fbcfedf7c193bc2c599145b156104f5575073bbbbbbbbbbbbbbbbbbbbbbbbbbbbbbbbbbbbbbbb919050565b6001600160a01b03808316600090815260046020526040902054168061051b578261051d565b805b9392505050565b919050565b6000546001600160a01b031633146105535760405162461bcd60e51b815260040161032d906115bf565b60005b818110156105c557600160036000858585818110610576576105766115f6565b905060200201602081019061058b91906114a0565b6001600160a01b031681526020810191909152604001600020805460ff1916911515919091179055806105bd81611622565b915050610556565b507f0e1316bdb62d8b87b8c288a81e4bc638fbf187056521cd5f525a3c70dd812abf82826040516105f79291906116b6565b60405180910390a15050565b61060d82826108c9565b5050565b600080600061062085856109ce565b91509150600061063083836109ff565b9050600081600781111561064657610646611581565b141593505050505b92915050565b60008061066184846109ce565b909250905060006001600160a01b0380841660009081526002602090815260408083209386168352929052205460ff1660078111156106a2576106a2611581565b14156106b2576106b284846108c9565b50505050565b60008060006106c786856109ce565b6001600160a01b03808316600090815260026020908152604080832093851683529290529081205492945090925060ff9091169081600781111561070d5761070d611581565b141561074e5760405162461bcd60e51b815260206004820152601060248201526f14185a5c939bdd14dd5c1c1bdc9d195960821b604482015260640161032d565b600061075988610b2d565b9050600061076687610b2d565b9050600383600781111561077c5761077c611581565b116107a457610798898884848c6001600160801b031688610b91565b9550505050505061051d565b60058360078111156107b8576107b8611581565b116107d457610798898884848c6001600160801b031688610d4b565b610798898884848c6001600160801b031688610de3565b6000546001600160a01b031633146108155760405162461bcd60e51b815260040161032d906115bf565b61081e81610f1a565b50565b6001546001600160a01b03166108795760405162461bcd60e51b815260206004820152601f60248201527f476f7665726e61626c653a206e6f2070656e64696e6720676f7665726e6f7200604482015260640161032d565b60018054600080546001600160a01b03199081166001600160a01b0384161782559091169091556040517fdc57ca23c46d823853915ed5a090ca0ee9db5eb6a46f5c58e1c9158de861fd769190a1565b6000806108d684846109ce565b9150915060006108e683836109ff565b905060008160078111156108fc576108fc611581565b141561093d5760405162461bcd60e51b815260206004820152601060248201526f14185a5c939bdd14dd5c1c1bdc9d195960821b604482015260640161032d565b6001600160a01b038084166000908152600260209081526040808320938616835292905220805482919060ff1916600183600781111561097f5761097f611581565b0217905550604080516001600160a01b038086168252841660208201527fa0f87b02ca47ea06fb7d8fd30abf826222301c4e0cc359211c4254d49b4736ad910160405180910390a15050505050565b600080826001600160a01b0316846001600160a01b0316106109f15782846109f4565b83835b909590945092505050565b600080610a0b84610fc4565b90506000610a1884610fc4565b90506001600160a01b038581167f0000000000000000000000000000000000000000000000000000000000000000821690811491861614818015610a595750825b80610a695750838015610a695750805b15610a7b57600194505050505061064e565b8215610a9957610a8e8760026007611059565b94505050505061064e565b8315610aac57610a8e8660026006611059565b8015610abf57610a8e8760066003611059565b8115610ad257610a8e8660076003611059565b610ade8761034861110e565b15610af057610a8e8660046006611059565b610b0e8773eeeeeeeeeeeeeeeeeeeeeeeeeeeeeeeeeeeeeeee61110e565b15610b2057610a8e8660076005611059565b5060009695505050505050565b6000816001600160a01b031663313ce5676040518163ffffffff1660e01b8152600401602060405180830381865afa158015610b6d573d6000803e3d6000fd5b505050506040513d601f19601f8201168201806040525081019061064e91906116d2565b600080806003846007811115610ba957610ba9611581565b14610bb5576008610bb8565b60125b90506000610bc58a610fc4565b80610c1d57506003856007811115610bdf57610bdf611581565b148015610c1d57507f00000000000000000000000000000000000000000000000000000000000000006001600160a01b03168a6001600160a01b0316145b90506001856007811115610c3357610c33611581565b1415610c4857610c416111cc565b9250610ce3565b6002856007811115610c5c57610c5c611581565b1415610c7e57610c41610c6e8a610fc4565b610c7857896111f3565b8a6111f3565b6003856007811115610c9257610c92611581565b1415610ce357610ce07f00000000000000000000000000000000000000000000000000000000000000006001600160a01b03168a6001600160a01b031614610cda5789611226565b8a611226565b92505b80610d1c57610d12610cf587856116f5565b89610d00858b611714565b610d0a9190611714565b60000b611296565b9350505050610d41565b610d1283610d2e88610d0a8b87611755565b610d389190611798565b610d0a8a6117ba565b9695505050505050565b6000806004836007811115610d6257610d62611581565b14610d815773eeeeeeeeeeeeeeeeeeeeeeeeeeeeeeeeeeeeeeee610d85565b6103485b90506000610d9b610d958a61048c565b836112da565b90506000610db1610dab8a61048c565b846112da565b9050610dd581610dc184896116f5565b610dcb9190611798565b610d0a8a8a611714565b9a9950505050505050505050565b6000806006836007811115610dfa57610dfa611581565b148015610e185750866001600160a01b0316886001600160a01b0316105b80610e5057506007836007811115610e3257610e32611581565b148015610e505750866001600160a01b0316886001600160a01b0316115b90506000610e5c6111cc565b90508115610ec6576000610e6f8a6111f3565b90506000610e7c8a611226565b90506000610ea3610e8d848a6116f5565b6012610e998d8d611714565b610d0a9190611755565b905081610eb08583611798565b610eba9190611798565b95505050505050610d41565b6000610ed18a611226565b90506000610ede8a6111f3565b9050610f0f8184610eef858b6116f5565b610ef991906116f5565b610f039190611798565b6012610d008c8c611714565b945050505050610d41565b6001600160a01b038116610f705760405162461bcd60e51b815260206004820152601860248201527f476f7665726e61626c653a207a65726f20616464726573730000000000000000604482015260640161032d565b600180546001600160a01b0319166001600160a01b0383169081179091556040519081527f56bddfa0cee9697cebddf9acd7f23dc6583663b05e007b877056d05017994def9060200160405180910390a150565b60006001600160a01b038216736b175474e89094c44da98b954eedeac495271d0f148061100d57506001600160a01b03821673a0b86991c6218b36c1d19d4a2e9eb0ce3606eb48145b8061103457506001600160a01b03821673dac17f958d2ee523a2206206994597c13d831ec7145b8061064e5750506001600160a01b031660009081526003602052604090205460ff1690565b600080600080600085600781111561107357611073611581565b87600781111561108557611085611581565b106110a95773eeeeeeeeeeeeeeeeeeeeeeeeeeeeeeeeeeeeeeee86610348896110c4565b6103488773eeeeeeeeeeeeeeeeeeeeeeeeeeeeeeeeeeeeeeee885b93509350935093506110d6888561110e565b156110e7578294505050505061051d565b6110f1888361110e565b1561110157935061051d92505050565b600094505050505061051d565b60007f00000000000000000000000000000000000000000000000000000000000000006001600160a01b031663bcfd032d6111488561048c565b6040516001600160e01b031960e084901b1681526001600160a01b039182166004820152908516602482015260440160a060405180830381865afa9250505080156111b0575060408051601f3d908101601f191682019092526111ad918101906117f4565b60015b6111bc5750600061064e565b600084139550505050505061064e565b60006111ee73eeeeeeeeeeeeeeeeeeeeeeeeeeeeeeeeeeeeeeee6103486112da565b905090565b60006111fe82610fc4565b61121b5761121661120e8361048c565b6103486112da565b61064e565b6305f5e10092915050565b60007f00000000000000000000000000000000000000000000000000000000000000006001600160a01b0316826001600160a01b0316146112875761121661126d8361048c565b73eeeeeeeeeeeeeeeeeeeeeeeeeeeeeeeeeeeeeeee6112da565b670de0b6b3a764000092915050565b6000808212156112c5576112a982611844565b6112b490600a611945565b6112be9084611798565b905061064e565b6112d082600a611945565b6112be90846116f5565b60405163bcfd032d60e01b81526001600160a01b0383811660048301528281166024830152600091829182917f00000000000000000000000000000000000000000000000000000000000000009091169063bcfd032d9060440160a060405180830381865afa158015611351573d6000803e3d6000fd5b505050506040513d601f19601f8201168201806040525081019061137591906117f4565b509350509250506000821361139c5760405162bfc92160e01b815260040160405180910390fd5b6113a96201518042611951565b8110156113c9576040516346ea729360e01b815260040160405180910390fd5b509392505050565b60008083601f8401126113e357600080fd5b50813567ffffffffffffffff8111156113fb57600080fd5b6020830191508360208260051b850101111561141657600080fd5b9250929050565b6000806000806040858703121561143357600080fd5b843567ffffffffffffffff8082111561144b57600080fd5b611457888389016113d1565b9096509450602087013591508082111561147057600080fd5b5061147d878288016113d1565b95989497509550505050565b80356001600160a01b038116811461052457600080fd5b6000602082840312156114b257600080fd5b61051d82611489565b600080602083850312156114ce57600080fd5b823567ffffffffffffffff8111156114e557600080fd5b6114f1858286016113d1565b90969095509350505050565b6000806040838503121561151057600080fd5b61151983611489565b915061152760208401611489565b90509250929050565b60008060006060848603121561154557600080fd5b61154e84611489565b925060208401356001600160801b038116811461156a57600080fd5b915061157860408501611489565b90509250925092565b634e487b7160e01b600052602160045260246000fd5b60208101600883106115b957634e487b7160e01b600052602160045260246000fd5b91905290565b60208082526019908201527f476f7665726e61626c653a206f6e6c7920676f7665726e6f7200000000000000604082015260600190565b634e487b7160e01b600052603260045260246000fd5b634e487b7160e01b600052601160045260246000fd5b60006000198214156116365761163661160c565b5060010190565b8183526000602080850194508260005b85811015611679576001600160a01b0361166683611489565b168752958201959082019060010161164d565b509495945050505050565b60408152600061169860408301868861163d565b82810360208401526116ab81858761163d565b979650505050505050565b6020815260006116ca60208301848661163d565b949350505050565b6000602082840312156116e457600080fd5b815160ff8116811461051d57600080fd5b600081600019048311821515161561170f5761170f61160c565b500290565b600081810b83820b8281128015607f198301841216156117365761173661160c565b81607f01831381161561174b5761174b61160c565b5090039392505050565b60008160000b8360000b6000821282607f038213811516156117795761177961160c565b82607f1903821281161561178f5761178f61160c565b50019392505050565b6000826117b557634e487b7160e01b600052601260045260246000fd5b500490565b600081810b607f198114156117d1576117d161160c565b60000392915050565b805169ffffffffffffffffffff8116811461052457600080fd5b600080600080600060a0868803121561180c57600080fd5b611815866117da565b9450602086015193506040860151925060608601519150611838608087016117da565b90509295509295909350565b6000600160ff1b82141561185a5761185a61160c565b5060000390565b600181815b8085111561189c5781600019048211156118825761188261160c565b8085161561188f57918102915b93841c9390800290611866565b509250929050565b6000826118b35750600161064e565b816118c05750600061064e565b81600181146118d657600281146118e0576118fc565b600191505061064e565b60ff8411156118f1576118f161160c565b50506001821b61064e565b5060208310610133831016604e8410600b841016171561191f575081810a61064e565b6119298383611861565b806000190482111561193d5761193d61160c565b029392505050565b600061051d83836118a4565b6000828210156119635761196361160c565b50039056fea2646970667358221220ee89a29b8ea83c52e9acd41c29df2eb53ddf27d67c66de76df14e478aebdb7b164736f6c634300080a0033",
  "devdoc": {
    "kind": "dev",
    "methods": {
      "addMappings(address[],address[])": {
        "params": {
          "_addresses": "The addresses of the tokens",
          "_mappings": "The addresses of their mappings"
        }
      },
      "addSupportForPairIfNeeded(address,address)": {
        "details": "Will revert if pair cannot be supported. _tokenA and _tokenB may be passed in either tokenA/tokenB or tokenB/tokenA order",
        "params": {
          "_tokenA": "One of the pair's tokens",
          "_tokenB": "The other of the pair's tokens"
        }
      },
      "addUSDStablecoins(address[])": {
        "params": {
          "_addresses": "The addresses of the tokens"
        }
      },
      "canSupportPair(address,address)": {
        "details": "_tokenA and _tokenB may be passed in either tokenA/tokenB or tokenB/tokenA order",
        "params": {
          "_tokenA": "One of the pair's tokens",
          "_tokenB": "The other of the pair's tokens"
        },
        "returns": {
          "_0": "Whether the given pair of tokens can be supported by the oracle"
        }
      },
      "mappedToken(address)": {
        "returns": {
          "_0": "If it exists, the mapping is returned. Otherwise, the original token is returned"
        }
      },
      "quote(address,uint128,address)": {
        "params": {
          "_amountIn": "The amount that will be provided",
          "_tokenIn": "The token that will be provided",
          "_tokenOut": "The token we would like to quote"
        },
        "returns": {
          "_amountOut": "How much _tokenOut will be returned in exchange for _amountIn amount of _tokenIn"
        }
      },
      "reconfigureSupportForPair(address,address)": {
        "details": "Will revert if pair cannot be supported. _tokenA and _tokenB may be passed in either tokenA/tokenB or tokenB/tokenA order",
        "params": {
          "_tokenA": "One of the pair's tokens",
          "_tokenB": "The other of the pair's tokens"
        }
      }
    },
    "stateVariables": {
      "WETH": {
        "return": "The address of the token",
        "returns": {
          "_0": "The address of the token"
        }
      },
      "planForPair": {
        "details": "It is expected that _tokenA < _tokenB",
        "return": "The pricing plan that will be used",
        "returns": {
          "_0": "The pricing plan that will be used"
        }
      },
      "registry": {
        "return": "The Chainlink registry",
        "returns": {
          "_0": "The Chainlink registry"
        }
      }
    },
    "version": 1
  },
  "userdoc": {
    "errors": {
      "InvalidPrice()": [
        {
          "notice": "Thrown when the price is non-positive"
        }
      ],
      "LastUpdateIsTooOld()": [
        {
          "notice": "Thrown when the last price update was too long ago"
        }
      ]
    },
    "events": {
      "AddedSupportForPairInChainlinkOracle(address,address)": {
        "notice": "Emitted when the oracle add supports for a new pair"
      },
      "MappingsAdded(address[],address[])": {
        "notice": "Emitted when new mappings are added"
      },
      "TokensConsideredUSD(address[])": {
        "notice": "Emitted when new tokens are considered USD"
      }
    },
    "kind": "user",
    "methods": {
      "WETH()": {
        "notice": "Returns the address of the WETH ERC-20 token"
      },
      "addMappings(address[],address[])": {
        "notice": "Adds new token mappings"
      },
      "addSupportForPairIfNeeded(address,address)": {
        "notice": "Adds support for a given pair if the oracle didn't support it already. If called for a pair that is already supported, then nothing will happen. This function will let the oracle take some actions to configure the pair, in preparation for future quotes."
      },
      "addUSDStablecoins(address[])": {
        "notice": "Adds new tokens that should be considered USD stablecoins"
      },
      "canSupportPair(address,address)": {
        "notice": "Returns whether this oracle can support this pair of tokens"
      },
      "mappedToken(address)": {
        "notice": "Returns the mapping of the given token, if it exists. If it doesn't, then the original token is returned"
      },
      "planForPair(address,address)": {
        "notice": "Returns the pricing plan that will be used when quoting the given pair"
      },
      "quote(address,uint128,address)": {
        "notice": "Returns a quote, based on the given tokens and amount"
      },
      "reconfigureSupportForPair(address,address)": {
        "notice": "Reconfigures support for a given pair. This function will let the oracle take some actions to configure the pair, in preparation for future quotes. Can be called many times in order to let the oracle re-configure for a new context."
      },
      "registry()": {
        "notice": "Returns the Chainlink feed registry"
      }
    },
    "version": 1
  },
  "storageLayout": {
    "storage": [
      {
        "astId": 15934,
        "contract": "contracts/oracles/ChainlinkOracle.sol:ChainlinkOracle",
        "label": "_governor",
        "offset": 0,
        "slot": "0",
        "type": "t_address"
      },
      {
        "astId": 15936,
        "contract": "contracts/oracles/ChainlinkOracle.sol:ChainlinkOracle",
        "label": "_pendingGovernor",
        "offset": 0,
        "slot": "1",
        "type": "t_address"
      },
      {
        "astId": 14467,
        "contract": "contracts/oracles/ChainlinkOracle.sol:ChainlinkOracle",
        "label": "planForPair",
        "offset": 0,
        "slot": "2",
        "type": "t_mapping(t_address,t_mapping(t_address,t_enum(PricingPlan)10442))"
      },
      {
        "astId": 14502,
        "contract": "contracts/oracles/ChainlinkOracle.sol:ChainlinkOracle",
        "label": "_shouldBeConsideredUSD",
        "offset": 0,
        "slot": "3",
        "type": "t_mapping(t_address,t_bool)"
      },
      {
        "astId": 14506,
        "contract": "contracts/oracles/ChainlinkOracle.sol:ChainlinkOracle",
        "label": "_tokenMappings",
        "offset": 0,
        "slot": "4",
        "type": "t_mapping(t_address,t_address)"
      }
    ],
    "types": {
      "t_address": {
        "encoding": "inplace",
        "label": "address",
        "numberOfBytes": "20"
      },
      "t_bool": {
        "encoding": "inplace",
        "label": "bool",
        "numberOfBytes": "1"
      },
      "t_enum(PricingPlan)10442": {
        "encoding": "inplace",
        "label": "enum IChainlinkOracle.PricingPlan",
        "numberOfBytes": "1"
      },
      "t_mapping(t_address,t_address)": {
        "encoding": "mapping",
        "key": "t_address",
        "label": "mapping(address => address)",
        "numberOfBytes": "32",
        "value": "t_address"
      },
      "t_mapping(t_address,t_bool)": {
        "encoding": "mapping",
        "key": "t_address",
        "label": "mapping(address => bool)",
        "numberOfBytes": "32",
        "value": "t_bool"
      },
      "t_mapping(t_address,t_enum(PricingPlan)10442)": {
        "encoding": "mapping",
        "key": "t_address",
        "label": "mapping(address => enum IChainlinkOracle.PricingPlan)",
        "numberOfBytes": "32",
        "value": "t_enum(PricingPlan)10442"
      },
      "t_mapping(t_address,t_mapping(t_address,t_enum(PricingPlan)10442))": {
        "encoding": "mapping",
        "key": "t_address",
        "label": "mapping(address => mapping(address => enum IChainlinkOracle.PricingPlan))",
        "numberOfBytes": "32",
        "value": "t_mapping(t_address,t_enum(PricingPlan)10442)"
      }
    }
  }
}